{
  "contractName": "signDocs",
  "abi": [
    {
      "anonymous": false,
      "inputs": [
        {
          "indexed": true,
          "internalType": "address",
          "name": "previousOwner",
          "type": "address"
        },
        {
          "indexed": true,
          "internalType": "address",
          "name": "newOwner",
          "type": "address"
        }
      ],
      "name": "OwnershipTransferred",
      "type": "event"
    },
    {
      "anonymous": false,
      "inputs": [
        {
          "indexed": false,
          "internalType": "address",
          "name": "",
          "type": "address"
        },
        {
          "indexed": false,
          "internalType": "bytes32",
          "name": "",
          "type": "bytes32"
        }
      ],
      "name": "newDocumentSigned",
      "type": "event"
    },
    {
      "anonymous": false,
      "inputs": [
        {
          "indexed": false,
          "internalType": "address",
          "name": "",
          "type": "address"
        }
      ],
      "name": "userRegistered",
      "type": "event"
    },
    {
      "inputs": [],
      "name": "owner",
      "outputs": [
        {
          "internalType": "address",
          "name": "",
          "type": "address"
        }
      ],
      "stateMutability": "view",
      "type": "function",
      "constant": true
    },
    {
      "inputs": [],
      "name": "renounceOwnership",
      "outputs": [],
      "stateMutability": "nonpayable",
      "type": "function"
    },
    {
      "inputs": [
        {
          "internalType": "address",
          "name": "newOwner",
          "type": "address"
        }
      ],
      "name": "transferOwnership",
      "outputs": [],
      "stateMutability": "nonpayable",
      "type": "function"
    },
    {
      "inputs": [
        {
          "internalType": "address",
          "name": "newUser",
          "type": "address"
        }
      ],
      "name": "registerUser",
      "outputs": [],
      "stateMutability": "nonpayable",
      "type": "function"
    },
    {
      "inputs": [
        {
          "internalType": "bytes32",
          "name": "documentHash",
          "type": "bytes32"
        },
        {
          "internalType": "string",
          "name": "signature",
          "type": "string"
        }
      ],
      "name": "ownerSignsDocument",
      "outputs": [],
      "stateMutability": "nonpayable",
      "type": "function"
    },
    {
      "inputs": [
        {
          "internalType": "bytes32",
          "name": "documentHash",
          "type": "bytes32"
        },
        {
          "internalType": "string",
          "name": "signature",
          "type": "string"
        }
      ],
      "name": "userSignsDocument",
      "outputs": [],
      "stateMutability": "nonpayable",
      "type": "function"
    },
    {
      "inputs": [
        {
          "internalType": "bytes32",
          "name": "documentHash",
          "type": "bytes32"
        },
        {
          "internalType": "address",
          "name": "user",
          "type": "address"
        }
      ],
      "name": "getIfIsDocSignedBy",
      "outputs": [
        {
          "internalType": "bool",
          "name": "",
          "type": "bool"
        }
      ],
      "stateMutability": "view",
      "type": "function",
      "constant": true
    },
    {
      "inputs": [
        {
          "internalType": "bytes32",
          "name": "documentHash",
          "type": "bytes32"
        }
      ],
      "name": "ownerRescindDocument",
      "outputs": [],
      "stateMutability": "nonpayable",
      "type": "function"
    },
    {
      "inputs": [
        {
          "internalType": "bytes32",
          "name": "documentHash",
          "type": "bytes32"
        }
      ],
      "name": "userRescindDocument",
      "outputs": [],
      "stateMutability": "nonpayable",
      "type": "function"
    },
    {
      "inputs": [
        {
          "internalType": "bytes32",
          "name": "documentHash",
          "type": "bytes32"
        },
        {
          "internalType": "address",
          "name": "user",
          "type": "address"
        }
      ],
      "name": "revokeDocument",
      "outputs": [],
      "stateMutability": "nonpayable",
      "type": "function"
    }
  ],
  "bytecode": "0x608060405234801561001057600080fd5b5061001a3361001f565b61006f565b600080546001600160a01b038381166001600160a01b0319831681178455604051919092169283917f8be0079c531659141344cd1fd0a4f28419497f9722a3daafe3b4186f6b6457e09190a35050565b610c218061007e6000396000f3fe608060405234801561001057600080fd5b506004361061009d5760003560e01c8063715018a611610066578063715018a61461013b5780638da5cb5b14610143578063a78860af1461015e578063b6868ed414610171578063f2fde38b1461018457600080fd5b8062722470146100a25780631a8abf98146100b75780632199d5cd146101025780635d115b90146101155780636623989c14610128575b600080fd5b6100b56100b03660046109e1565b610197565b005b6100ed6100c5366004610a16565b6001600160a01b03166000908152600160209081526040808320938352929052205460ff1690565b60405190151581526020015b60405180910390f35b6100b5610110366004610a42565b610272565b6100b5610123366004610a7a565b6102f6565b6100b5610136366004610a7a565b610511565b6100b5610690565b6000546040516001600160a01b0390911681526020016100f9565b6100b561016c3660046109e1565b6106c6565b6100b561017f366004610a16565b61077b565b6100b5610192366004610a42565b6108f6565b6000546001600160a01b031633146101ca5760405162461bcd60e51b81526004016101c190610b35565b60405180910390fd5b600160006101e06000546001600160a01b031690565b6001600160a01b031681526020808201929092526040908101600090812084825290925290205460ff1661024c5760405162461bcd60e51b8152602060048201526013602482015272111bd8dd5b595b9d081b9bdd081cda59db9959606a1b60448201526064016101c1565b33600090815260026020908152604080832093835292905220805460ff19166001179055565b6000546001600160a01b0316331461029c5760405162461bcd60e51b81526004016101c190610b35565b6001600160a01b038116600090815260056020908152604091829020805460ff1916600117905590513381527fbccbc36cc6dac185f9905c12b69a310c4d0b82bdfbc3bbbb8e3d2ff33c8176b0910160405180910390a150565b3360009081526005602052604090205460ff1661034b5760405162461bcd60e51b8152602060048201526013602482015272155cd95c881b9bdd081c9959da5cdd195c9959606a1b60448201526064016101c1565b600081511161036c5760405162461bcd60e51b81526004016101c190610b6a565b600160006103826000546001600160a01b031690565b6001600160a01b031681526020808201929092526040908101600090812085825290925290205460ff166104035760405162461bcd60e51b815260206004820152602260248201527f4f776e6572206d757374207369676e2074686520636f6e7472616374206669726044820152611cdd60f21b60648201526084016101c1565b33600090815260016020908152604080832085845290915290205460ff161561046e5760405162461bcd60e51b815260206004820152601a60248201527f446f63756d656e74207369676e65642070726576696f75736c7900000000000060448201526064016101c1565b336000908152600460209081526040808320858452825280832054905190929161049c918491869101610bb3565b60408051808303601f19018152828252805160209182012033600081815260018085528582208b8352855290859020805460ff19169091179055845290830181905292507ff332eb273cb047b4250313600233be0fdb5bfa3027036496cefff5a423e81680910160405180910390a150505050565b6000546001600160a01b0316331461053b5760405162461bcd60e51b81526004016101c190610b35565b600081511161055c5760405162461bcd60e51b81526004016101c190610b6a565b33600090815260016020908152604080832085845290915290205460ff16156105c75760405162461bcd60e51b815260206004820152601a60248201527f446f63756d656e74207369676e65642070726576696f75736c7900000000000060448201526064016101c1565b33600090815260026020908152604080832085845290915290205460ff16156106275760405162461bcd60e51b8152602060048201526012602482015271111bd8dd5b595b9d081c995cd8da5b99195960721b60448201526064016101c1565b6000828260405160200161063c929190610bb3565b60408051601f1981840301815291815281516020928301203360008181526004855283812088825285528381209290925581526001808452828220968252959092529020805460ff19169093179092555050565b6000546001600160a01b031633146106ba5760405162461bcd60e51b81526004016101c190610b35565b6106c46000610991565b565b3360009081526005602052604090205460ff1661071b5760405162461bcd60e51b8152602060048201526013602482015272155cd95c881b9bdd081c9959da5cdd195c9959606a1b60448201526064016101c1565b33600090815260016020908152604080832084845290915290205460ff1661024c5760405162461bcd60e51b8152602060048201526013602482015272111bd8dd5b595b9d081b9bdd081cda59db9959606a1b60448201526064016101c1565b6000546001600160a01b031633146107a55760405162461bcd60e51b81526004016101c190610b35565b33600090815260026020908152604080832085845290915290205460ff1661081b5760405162461bcd60e51b815260206004820152602360248201527f446f63756d656e74206e6f742072657363696e64656420627920746865206f776044820152623732b960e91b60648201526084016101c1565b6001600160a01b038116600090815260026020908152604080832085845290915290205460ff166108995760405162461bcd60e51b815260206004820152602260248201527f446f63756d656e74206e6f742072657363696e6465642062792074686520757360448201526132b960f11b60648201526084016101c1565b6000828152600360209081526040808320805460ff1990811660019081179092556001600160a01b039095168452808352818420868552835281842080548616905533845282528083209483529390529190912080549091169055565b6000546001600160a01b031633146109205760405162461bcd60e51b81526004016101c190610b35565b6001600160a01b0381166109855760405162461bcd60e51b815260206004820152602660248201527f4f776e61626c653a206e6577206f776e657220697320746865207a65726f206160448201526564647265737360d01b60648201526084016101c1565b61098e81610991565b50565b600080546001600160a01b038381166001600160a01b0319831681178455604051919092169283917f8be0079c531659141344cd1fd0a4f28419497f9722a3daafe3b4186f6b6457e09190a35050565b6000602082840312156109f357600080fd5b5035919050565b80356001600160a01b0381168114610a1157600080fd5b919050565b60008060408385031215610a2957600080fd5b82359150610a39602084016109fa565b90509250929050565b600060208284031215610a5457600080fd5b610a5d826109fa565b9392505050565b634e487b7160e01b600052604160045260246000fd5b60008060408385031215610a8d57600080fd5b82359150602083013567ffffffffffffffff80821115610aac57600080fd5b818501915085601f830112610ac057600080fd5b813581811115610ad257610ad2610a64565b604051601f8201601f19908116603f01168101908382118183101715610afa57610afa610a64565b81604052828152886020848701011115610b1357600080fd5b8260208601602083013760006020848301015280955050505050509250929050565b6020808252818101527f4f776e61626c653a2063616c6c6572206973206e6f7420746865206f776e6572604082015260600190565b60208082526029908201527f5369676e6174757265206c656e677468206d757374206265206c6172676572206040820152687468616e207a65726f60b81b606082015260800190565b8281526000825160005b81811015610bd957602081860181015185830182015201610bbd565b5060009201602001918252509291505056fea26469706673582212200de95f7bfce465f2785535250b0f8bbf2856c95d945d826e09ade937af7317d364736f6c63430008120033",
  "immutableReferences": {},
  "source": "//SPDX-License-Identifier: UNLICENSED\r\n\r\npragma solidity ^0.8.18;\r\n\r\nimport \"../../node_modules/@openzeppelin/contracts/utils/Strings.sol\";\r\nimport \"../../node_modules/@openzeppelin/contracts/access/Ownable.sol\";\r\n\r\ncontract signDocs is Ownable {\r\n\r\n    mapping(address => mapping(bytes32 => bool)) isDocSignedBy;\r\n    mapping(address => mapping(bytes32 => bool)) isDocRescindedBy;\r\n    mapping(bytes32 => bool) isDocRevoked;\r\n    mapping(address => mapping(bytes32 => bytes32)) signedDocument;\r\n    mapping(address => bool) registeredUsers;\r\n\r\n    //events\r\n    event userRegistered(address);\r\n    event newDocumentSigned(address, bytes32);\r\n\r\n    //registered user modifier\r\n    modifier isRegisteredUser() {\r\n        require(registeredUsers[msg.sender], \"User not registered\");\r\n        _;\r\n    }\r\n\r\n    function registerUser(address newUser) external onlyOwner {\r\n        registeredUsers[newUser] = true;\r\n        emit userRegistered(msg.sender);\r\n    }\r\n\r\n    function ownerSignsDocument(bytes32 documentHash, string memory signature) external onlyOwner {\r\n        require(bytes(signature).length > 0, \"Signature length must be larger than zero\");\r\n        require(!isDocSignedBy[msg.sender][documentHash], \"Document signed previously\");\r\n        require(!isDocRescindedBy[msg.sender][documentHash], \"Document rescinded\");\r\n\r\n        \r\n        bytes32 documentSignedHash = keccak256(abi.encodePacked(documentHash, signature));  //Hashing the document and the signature\r\n        signedDocument[msg.sender][documentHash] = documentSignedHash; //Store signed document\r\n        isDocSignedBy[msg.sender][documentHash] = true; //Mark the original document as signed by the owner\r\n    }\r\n\r\n    //@audit-issue -> CHEK https://solidity-by-example.org/signature/\r\n    function userSignsDocument(bytes32 documentHash, string memory signature) external isRegisteredUser { \r\n        require(bytes(signature).length > 0, \"Signature length must be larger than zero\");\r\n        require(isDocSignedBy[owner()][documentHash], \"Owner must sign the contract first\");\r\n        require(!isDocSignedBy[msg.sender][documentHash], \"Document signed previously\");\r\n\r\n        bytes32 docToSign = signedDocument[msg.sender][documentHash]; //Get the document signed by the owner\r\n        bytes32 documentHashed = keccak256(abi.encodePacked(docToSign, signature)); //Add the user signature to the\r\n                                                                                     //document signed by the owner\r\n        \r\n        isDocSignedBy[msg.sender][documentHash] = true; //Mark the original document as signed by the user\r\n\r\n        emit newDocumentSigned(msg.sender, documentHashed);\r\n    }\r\n\r\n    function getIfIsDocSignedBy(bytes32 documentHash, address user) external view returns(bool){\r\n        return isDocSignedBy[user][documentHash];\r\n    }\r\n\r\n    function ownerRescindDocument(bytes32 documentHash) external onlyOwner {\r\n        require(isDocSignedBy[owner()][documentHash], \"Document not signed\");\r\n        isDocRescindedBy[msg.sender][documentHash] = true;\r\n    }\r\n\r\n    function userRescindDocument(bytes32 documentHash) external isRegisteredUser {\r\n        require(isDocSignedBy[msg.sender][documentHash], \"Document not signed\");\r\n        isDocRescindedBy[msg.sender][documentHash] = true;\r\n    }\r\n\r\n    function revokeDocument(bytes32 documentHash, address user) external onlyOwner {\r\n        require(isDocRescindedBy[msg.sender][documentHash], \"Document not rescinded by the owner\");\r\n        require(isDocRescindedBy[user][documentHash], \"Document not rescinded by the user\");\r\n\r\n        isDocRevoked[documentHash] = true;\r\n        isDocSignedBy[user][documentHash] = false;\r\n        isDocSignedBy[msg.sender][documentHash] = false;\r\n    }\r\n\r\n}",
  "sourcePath": "D:\\Documentos\\Trabajos\\legalContract\\src\\contracts\\signDocs.sol",
  "compiler": {
    "name": "solc",
    "version": "0.8.18+commit.87f61d96.Emscripten.clang"
  },
  "schemaVersion": "3.4.8",
  "updatedAt": "2023-04-11T05:44:14.406Z",
  "networkType": "ethereum",
  "devdoc": {
    "kind": "dev",
    "methods": {
      "owner()": {
        "details": "Returns the address of the current owner."
      },
      "renounceOwnership()": {
        "details": "Leaves the contract without owner. It will not be possible to call `onlyOwner` functions anymore. Can only be called by the current owner. NOTE: Renouncing ownership will leave the contract without an owner, thereby removing any functionality that is only available to the owner."
      },
      "transferOwnership(address)": {
        "details": "Transfers ownership of the contract to a new account (`newOwner`). Can only be called by the current owner."
      }
    },
    "version": 1
  },
  "userdoc": {
    "kind": "user",
    "methods": {},
    "version": 1
  }
}