{
  "contractName": "storeContract",
  "abi": [
    {
      "inputs": [
        {
          "internalType": "uint256",
          "name": "",
          "type": "uint256"
        }
      ],
      "name": "hashes",
      "outputs": [
        {
          "internalType": "bytes32",
          "name": "",
          "type": "bytes32"
        }
      ],
      "stateMutability": "view",
      "type": "function",
      "constant": true
    },
    {
      "inputs": [
        {
          "internalType": "string",
          "name": "contractHash",
          "type": "string"
        },
        {
          "internalType": "string",
          "name": "signature",
          "type": "string"
        }
      ],
      "name": "addSignedContract",
      "outputs": [],
      "stateMutability": "nonpayable",
      "type": "function"
    },
    {
      "inputs": [
        {
          "internalType": "string",
          "name": "contractHash",
          "type": "string"
        },
        {
          "internalType": "string",
          "name": "signature",
          "type": "string"
        }
      ],
      "name": "getContractSigned",
      "outputs": [
        {
          "internalType": "bytes32",
          "name": "",
          "type": "bytes32"
        }
      ],
      "stateMutability": "pure",
      "type": "function",
      "constant": true
    },
    {
      "inputs": [
        {
          "internalType": "string",
          "name": "legalContract",
          "type": "string"
        }
      ],
      "name": "hashContract",
      "outputs": [],
      "stateMutability": "nonpayable",
      "type": "function"
    }
  ],
  "bytecode": "0x6080604052600060015534801561001557600080fd5b50610720806100256000396000f3fe608060405234801561001057600080fd5b506004361061004c5760003560e01c80633778b09f14610051578063501895ae1461006d578063de5104e41461009d578063ed2c92e6146100cd575b600080fd5b61006b60048036038101906100669190610443565b6100e9565b005b610087600480360381019061008291906104c2565b61016a565b6040516100949190610508565b60405180910390f35b6100b760048036038101906100b29190610523565b61018e565b6040516100c49190610508565b60405180910390f35b6100e760048036038101906100e29190610523565b61020a565b005b6000816040516020016100fc919061060c565b604051602081830303815290604052805190602001209050336003600083815260200190815260200160002060006101000a81548173ffffffffffffffffffffffffffffffffffffffff021916908373ffffffffffffffffffffffffffffffffffffffff1602179055505050565b6000818154811061017a57600080fd5b906000526020600020016000915090505481565b6000808251116101d3576040517f08c379a00000000000000000000000000000000000000000000000000000000081526004016101ca906106a6565b60405180910390fd5b600083836040516020016101e89291906106c6565b6040516020818303038152906040528051906020012090508091505092915050565b600081511161024e576040517f08c379a0000000000000000000000000000000000000000000000000000000008152600401610245906106a6565b60405180910390fd5b600082826040516020016102639291906106c6565b6040516020818303038152906040528051906020012090506001600260003373ffffffffffffffffffffffffffffffffffffffff1673ffffffffffffffffffffffffffffffffffffffff168152602001908152602001600020600083815260200190815260200160002060006101000a81548160ff021916908315150217905550505050565b6000604051905090565b600080fd5b600080fd5b600080fd5b600080fd5b6000601f19601f8301169050919050565b7f4e487b7100000000000000000000000000000000000000000000000000000000600052604160045260246000fd5b61035082610307565b810181811067ffffffffffffffff8211171561036f5761036e610318565b5b80604052505050565b60006103826102e9565b905061038e8282610347565b919050565b600067ffffffffffffffff8211156103ae576103ad610318565b5b6103b782610307565b9050602081019050919050565b82818337600083830152505050565b60006103e66103e184610393565b610378565b90508281526020810184848401111561040257610401610302565b5b61040d8482856103c4565b509392505050565b600082601f83011261042a576104296102fd565b5b813561043a8482602086016103d3565b91505092915050565b600060208284031215610459576104586102f3565b5b600082013567ffffffffffffffff811115610477576104766102f8565b5b61048384828501610415565b91505092915050565b6000819050919050565b61049f8161048c565b81146104aa57600080fd5b50565b6000813590506104bc81610496565b92915050565b6000602082840312156104d8576104d76102f3565b5b60006104e6848285016104ad565b91505092915050565b6000819050919050565b610502816104ef565b82525050565b600060208201905061051d60008301846104f9565b92915050565b6000806040838503121561053a576105396102f3565b5b600083013567ffffffffffffffff811115610558576105576102f8565b5b61056485828601610415565b925050602083013567ffffffffffffffff811115610585576105846102f8565b5b61059185828601610415565b9150509250929050565b600081519050919050565b600081905092915050565b60005b838110156105cf5780820151818401526020810190506105b4565b60008484015250505050565b60006105e68261059b565b6105f081856105a6565b93506106008185602086016105b1565b80840191505092915050565b600061061882846105db565b915081905092915050565b600082825260208201905092915050565b7f5369676e6174757265206c656e677468206d757374206265206c61726765722060008201527f7468616e207a65726f0000000000000000000000000000000000000000000000602082015250565b6000610690602983610623565b915061069b82610634565b604082019050919050565b600060208201905081810360008301526106bf81610683565b9050919050565b60006106d282856105db565b91506106de82846105db565b9150819050939250505056fea2646970667358221220ae4a6b49430b2e732d02d38e2e3e9d2f7eac3e2b916455d9b0a63169206ff05264736f6c63430008120033",
  "immutableReferences": {},
  "source": "//SPDX-License-Identifier: UNLICENSED\r\n\r\npragma solidity ^0.8.18;\r\n\r\nimport \"../../node_modules/@openzeppelin/contracts/utils/Strings.sol\";\r\n\r\ncontract storeContract {\r\n\r\n    bytes32[] public hashes;\r\n    uint256 position = 0;\r\n    \r\n    mapping(address => mapping(bytes32 => bool)) contractSignedBy;\r\n    mapping(bytes32 => address) hashedTextby;\r\n\r\n    function addSignedContract(string memory contractHash, string memory signature) public {\r\n        require(bytes(signature).length > 0, \"Signature length must be larger than zero\");\r\n        bytes32 contractHashed = keccak256(abi.encodePacked(contractHash, signature));\r\n        contractSignedBy[msg.sender][contractHashed] = true;\r\n    }\r\n\r\n    function getContractSigned(string memory contractHash, string memory signature) public pure returns(bytes32){\r\n        require(bytes(signature).length > 0, \"Signature length must be larger than zero\");\r\n        bytes32 contractHashed = keccak256(abi.encodePacked(contractHash, signature));\r\n        // return contractSignedBy[msg.sender][contractHashed];\r\n        return contractHashed;\r\n    }\r\n\r\n    function hashContract(string memory legalContract) public {\r\n        bytes32 textHashed = keccak256(abi.encodePacked(legalContract));\r\n        hashedTextby[textHashed] = msg.sender; \r\n    }\r\n}",
  "sourcePath": "D:\\Documentos\\Trabajos\\legalContract\\src\\contracts\\storeContract.sol",
  "compiler": {
    "name": "solc",
    "version": "0.8.18+commit.87f61d96.Emscripten.clang"
  },
  "schemaVersion": "3.4.8",
  "updatedAt": "2023-04-02T17:26:14.192Z",
  "networkType": "ethereum",
  "devdoc": {
    "kind": "dev",
    "methods": {},
    "version": 1
  },
  "userdoc": {
    "kind": "user",
    "methods": {},
    "version": 1
  }
}